{
  "_format": "hh-sol-artifact-1",
  "contractName": "CrowdFunding",
  "sourceName": "contracts/CrowdFunding.sol",
  "abi": [
    {
      "anonymous": false,
      "inputs": [
        {
          "indexed": false,
          "internalType": "uint256",
          "name": "id",
          "type": "uint256"
        },
        {
          "indexed": false,
          "internalType": "address",
          "name": "owner",
          "type": "address"
        },
        {
          "indexed": false,
          "internalType": "string",
          "name": "title",
          "type": "string"
        }
      ],
      "name": "CampaignCreated",
      "type": "event"
    },
    {
      "anonymous": false,
      "inputs": [
        {
          "indexed": true,
          "internalType": "uint256",
          "name": "campaignId",
          "type": "uint256"
        },
        {
          "indexed": false,
          "internalType": "string",
          "name": "ipfsHash",
          "type": "string"
        }
      ],
      "name": "CampaignIpfsHashUpdated",
      "type": "event"
    },
    {
      "inputs": [
        {
          "internalType": "uint256",
          "name": "",
          "type": "uint256"
        }
      ],
      "name": "campaignIpfsHashes",
      "outputs": [
        {
          "internalType": "string",
          "name": "",
          "type": "string"
        }
      ],
      "stateMutability": "view",
      "type": "function"
    },
    {
      "inputs": [
        {
          "internalType": "uint256",
          "name": "",
          "type": "uint256"
        }
      ],
      "name": "campaigns",
      "outputs": [
        {
          "internalType": "address",
          "name": "owner",
          "type": "address"
        },
        {
          "internalType": "string",
          "name": "title",
          "type": "string"
        },
        {
          "internalType": "string",
          "name": "description",
          "type": "string"
        },
        {
          "internalType": "uint256",
          "name": "target",
          "type": "uint256"
        },
        {
          "internalType": "uint256",
          "name": "deadline",
          "type": "uint256"
        },
        {
          "internalType": "uint256",
          "name": "amountCollected",
          "type": "uint256"
        }
      ],
      "stateMutability": "view",
      "type": "function"
    },
    {
      "inputs": [
        {
          "internalType": "address",
          "name": "_owner",
          "type": "address"
        },
        {
          "internalType": "string",
          "name": "_title",
          "type": "string"
        },
        {
          "internalType": "string",
          "name": "_description",
          "type": "string"
        },
        {
          "internalType": "uint256",
          "name": "_target",
          "type": "uint256"
        },
        {
          "internalType": "uint256",
          "name": "_deadline",
          "type": "uint256"
        },
        {
          "internalType": "string",
          "name": "_ipfsHash",
          "type": "string"
        }
      ],
      "name": "createCampaign",
      "outputs": [
        {
          "internalType": "uint256",
          "name": "",
          "type": "uint256"
        }
      ],
      "stateMutability": "nonpayable",
      "type": "function"
    },
    {
      "inputs": [
        {
          "internalType": "uint256",
          "name": "_id",
          "type": "uint256"
        }
      ],
      "name": "donateToCampaign",
      "outputs": [],
      "stateMutability": "payable",
      "type": "function"
    },
    {
      "inputs": [
        {
          "internalType": "uint256",
          "name": "_campaignId",
          "type": "uint256"
        }
      ],
      "name": "getCampaignIpfsHash",
      "outputs": [
        {
          "internalType": "string",
          "name": "",
          "type": "string"
        }
      ],
      "stateMutability": "view",
      "type": "function"
    },
    {
      "inputs": [],
      "name": "getCampaigns",
      "outputs": [
        {
          "components": [
            {
              "internalType": "address",
              "name": "owner",
              "type": "address"
            },
            {
              "internalType": "string",
              "name": "title",
              "type": "string"
            },
            {
              "internalType": "string",
              "name": "description",
              "type": "string"
            },
            {
              "internalType": "uint256",
              "name": "target",
              "type": "uint256"
            },
            {
              "internalType": "uint256",
              "name": "deadline",
              "type": "uint256"
            },
            {
              "internalType": "uint256",
              "name": "amountCollected",
              "type": "uint256"
            },
            {
              "internalType": "address[]",
              "name": "donators",
              "type": "address[]"
            },
            {
              "internalType": "uint256[]",
              "name": "donations",
              "type": "uint256[]"
            }
          ],
          "internalType": "struct CrowdFunding.Campaign[]",
          "name": "",
          "type": "tuple[]"
        }
      ],
      "stateMutability": "view",
      "type": "function"
    },
    {
      "inputs": [
        {
          "internalType": "uint256",
          "name": "_id",
          "type": "uint256"
        }
      ],
      "name": "getDonators",
      "outputs": [
        {
          "internalType": "address[]",
          "name": "",
          "type": "address[]"
        },
        {
          "internalType": "uint256[]",
          "name": "",
          "type": "uint256[]"
        }
      ],
      "stateMutability": "view",
      "type": "function"
    },
    {
      "inputs": [],
      "name": "numberOfCampaigns",
      "outputs": [
        {
          "internalType": "uint256",
          "name": "",
          "type": "uint256"
        }
      ],
      "stateMutability": "view",
      "type": "function"
    },
    {
      "inputs": [
        {
          "internalType": "uint256",
          "name": "_campaignId",
          "type": "uint256"
        },
        {
          "internalType": "string",
          "name": "_ipfsHash",
          "type": "string"
        }
      ],
      "name": "setCampaignIpfsHash",
      "outputs": [],
      "stateMutability": "nonpayable",
      "type": "function"
    }
  ],
  "bytecode": "0x6080604052600060025534801561001557600080fd5b50612018806100256000396000f3fe6080604052600436106100865760003560e01c806342a4fda81161005957806342a4fda81461017357806345ca684b1461018f57806368b99002146101b85780639943e3a1146101f5578063a6b036331461023257610086565b806307ca140d1461008b5780630dd4eb79146100b65780630fa91fa9146100f3578063141961bc14610131575b600080fd5b34801561009757600080fd5b506100a061025d565b6040516100ad9190610f72565b60405180910390f35b3480156100c257600080fd5b506100dd60048036038101906100d89190610fcd565b610263565b6040516100ea919061108a565b60405180910390f35b3480156100ff57600080fd5b5061011a60048036038101906101159190610fcd565b610303565b60405161012892919061125a565b60405180910390f35b34801561013d57600080fd5b5061015860048036038101906101539190610fcd565b610413565b60405161016a969594939291906112a0565b60405180910390f35b61018d60048036038101906101889190610fcd565b61057f565b005b34801561019b57600080fd5b506101b660048036038101906101b19190611444565b6106df565b005b3480156101c457600080fd5b506101df60048036038101906101da9190610fcd565b610829565b6040516101ec919061108a565b60405180910390f35b34801561020157600080fd5b5061021c600480360381019061021791906114cc565b610912565b6040516102299190610f72565b60405180910390f35b34801561023e57600080fd5b50610247610bba565b604051610254919061185c565b60405180910390f35b60025481565b60016020528060005260406000206000915090508054610282906118ad565b80601f01602080910402602001604051908101604052809291908181526020018280546102ae906118ad565b80156102fb5780601f106102d0576101008083540402835291602001916102fb565b820191906000526020600020905b8154815290600101906020018083116102de57829003601f168201915b505050505081565b606080600080848152602001908152602001600020600601600080858152602001908152602001600020600701818054806020026020016040519081016040528092919081815260200182805480156103b157602002820191906000526020600020905b8160009054906101000a900473ffffffffffffffffffffffffffffffffffffffff1673ffffffffffffffffffffffffffffffffffffffff1681526020019060010190808311610367575b505050505091508080548060200260200160405190810160405280929190818152602001828054801561040357602002820191906000526020600020905b8154815260200190600101908083116103ef575b5050505050905091509150915091565b60006020528060005260406000206000915090508060000160009054906101000a900473ffffffffffffffffffffffffffffffffffffffff169080600101805461045c906118ad565b80601f0160208091040260200160405190810160405280929190818152602001828054610488906118ad565b80156104d55780601f106104aa576101008083540402835291602001916104d5565b820191906000526020600020905b8154815290600101906020018083116104b857829003601f168201915b5050505050908060020180546104ea906118ad565b80601f0160208091040260200160405190810160405280929190818152602001828054610516906118ad565b80156105635780601f1061053857610100808354040283529160200191610563565b820191906000526020600020905b81548152906001019060200180831161054657829003601f168201915b5050505050908060030154908060040154908060050154905086565b60003490506000806000848152602001908152602001600020905080600601339080600181540180825580915050600190039060005260206000200160009091909190916101000a81548173ffffffffffffffffffffffffffffffffffffffff021916908373ffffffffffffffffffffffffffffffffffffffff1602179055508060070182908060018154018082558091505060019003906000526020600020016000909190919091505560008160000160009054906101000a900473ffffffffffffffffffffffffffffffffffffffff1673ffffffffffffffffffffffffffffffffffffffff16836040516106749061190f565b60006040518083038185875af1925050503d80600081146106b1576040519150601f19603f3d011682016040523d82523d6000602084013e6106b6565b606091505b5050905080156106d9578282600501546106d09190611953565b82600501819055505b50505050565b6002548210610723576040517f08c379a000000000000000000000000000000000000000000000000000000000815260040161071a906119d3565b60405180910390fd5b600080600084815260200190815260200160002090508060000160009054906101000a900473ffffffffffffffffffffffffffffffffffffffff1673ffffffffffffffffffffffffffffffffffffffff163373ffffffffffffffffffffffffffffffffffffffff16146107cb576040517f08c379a00000000000000000000000000000000000000000000000000000000081526004016107c290611a65565b60405180910390fd5b816001600085815260200190815260200160002090816107eb9190611c31565b50827fc835e568c2ccf8fe95aed4250a93347c2cd5ccbbe44c1f62872865e84145ebdf8360405161081c919061108a565b60405180910390a2505050565b6060600254821061086f576040517f08c379a0000000000000000000000000000000000000000000000000000000008152600401610866906119d3565b60405180910390fd5b60016000838152602001908152602001600020805461088d906118ad565b80601f01602080910402602001604051908101604052809291908181526020018280546108b9906118ad565b80156109065780601f106108db57610100808354040283529160200191610906565b820191906000526020600020905b8154815290600101906020018083116108e957829003601f168201915b50505050509050919050565b60008073ffffffffffffffffffffffffffffffffffffffff168773ffffffffffffffffffffffffffffffffffffffff1603610982576040517f08c379a000000000000000000000000000000000000000000000000000000000815260040161097990611d4f565b60405180910390fd5b60008651116109c6576040517f08c379a00000000000000000000000000000000000000000000000000000000081526004016109bd90611dbb565b60405180910390fd5b6000855111610a0a576040517f08c379a0000000000000000000000000000000000000000000000000000000008152600401610a0190611e27565b60405180910390fd5b60008411610a4d576040517f08c379a0000000000000000000000000000000000000000000000000000000008152600401610a4490611eb9565b60405180910390fd5b428311610a8f576040517f08c379a0000000000000000000000000000000000000000000000000000000008152600401610a8690611f4b565b60405180910390fd5b6000600254905060008060008381526020019081526020016000209050888160000160006101000a81548173ffffffffffffffffffffffffffffffffffffffff021916908373ffffffffffffffffffffffffffffffffffffffff16021790555087816001019081610b009190611c31565b5086816002019081610b129190611c31565b5085816003018190555084816004018190555060008160050181905550600084511115610b935783600160008481526020019081526020016000209081610b599190611c31565b50817fc835e568c2ccf8fe95aed4250a93347c2cd5ccbbe44c1f62872865e84145ebdf85604051610b8a919061108a565b60405180910390a25b60026000815480929190610ba690611f6b565b919050555081925050509695505050505050565b6060600060025467ffffffffffffffff811115610bda57610bd9611319565b5b604051908082528060200260200182016040528015610c1357816020015b610c00610efe565b815260200190600190039081610bf85790505b50905060005b600254811015610ef6576000806000838152602001908152602001600020905080604051806101000160405290816000820160009054906101000a900473ffffffffffffffffffffffffffffffffffffffff1673ffffffffffffffffffffffffffffffffffffffff1673ffffffffffffffffffffffffffffffffffffffff168152602001600182018054610cac906118ad565b80601f0160208091040260200160405190810160405280929190818152602001828054610cd8906118ad565b8015610d255780601f10610cfa57610100808354040283529160200191610d25565b820191906000526020600020905b815481529060010190602001808311610d0857829003601f168201915b50505050508152602001600282018054610d3e906118ad565b80601f0160208091040260200160405190810160405280929190818152602001828054610d6a906118ad565b8015610db75780601f10610d8c57610100808354040283529160200191610db7565b820191906000526020600020905b815481529060010190602001808311610d9a57829003601f168201915b5050505050815260200160038201548152602001600482015481526020016005820154815260200160068201805480602002602001604051908101604052809291908181526020018280548015610e6357602002820191906000526020600020905b8160009054906101000a900473ffffffffffffffffffffffffffffffffffffffff1673ffffffffffffffffffffffffffffffffffffffff1681526020019060010190808311610e19575b5050505050815260200160078201805480602002602001604051908101604052809291908181526020018280548015610ebb57602002820191906000526020600020905b815481526020019060010190808311610ea7575b505050505081525050838381518110610ed757610ed6611fb3565b5b6020026020010181905250508080610eee90611f6b565b915050610c19565b508091505090565b604051806101000160405280600073ffffffffffffffffffffffffffffffffffffffff168152602001606081526020016060815260200160008152602001600081526020016000815260200160608152602001606081525090565b6000819050919050565b610f6c81610f59565b82525050565b6000602082019050610f876000830184610f63565b92915050565b6000604051905090565b600080fd5b600080fd5b610faa81610f59565b8114610fb557600080fd5b50565b600081359050610fc781610fa1565b92915050565b600060208284031215610fe357610fe2610f97565b5b6000610ff184828501610fb8565b91505092915050565b600081519050919050565b600082825260208201905092915050565b60005b83811015611034578082015181840152602081019050611019565b60008484015250505050565b6000601f19601f8301169050919050565b600061105c82610ffa565b6110668185611005565b9350611076818560208601611016565b61107f81611040565b840191505092915050565b600060208201905081810360008301526110a48184611051565b905092915050565b600081519050919050565b600082825260208201905092915050565b6000819050602082019050919050565b600073ffffffffffffffffffffffffffffffffffffffff82169050919050565b6000611103826110d8565b9050919050565b611113816110f8565b82525050565b6000611125838361110a565b60208301905092915050565b6000602082019050919050565b6000611149826110ac565b61115381856110b7565b935061115e836110c8565b8060005b8381101561118f5781516111768882611119565b975061118183611131565b925050600181019050611162565b5085935050505092915050565b600081519050919050565b600082825260208201905092915050565b6000819050602082019050919050565b6111d181610f59565b82525050565b60006111e383836111c8565b60208301905092915050565b6000602082019050919050565b60006112078261119c565b61121181856111a7565b935061121c836111b8565b8060005b8381101561124d57815161123488826111d7565b975061123f836111ef565b925050600181019050611220565b5085935050505092915050565b60006040820190508181036000830152611274818561113e565b9050818103602083015261128881846111fc565b90509392505050565b61129a816110f8565b82525050565b600060c0820190506112b56000830189611291565b81810360208301526112c78188611051565b905081810360408301526112db8187611051565b90506112ea6060830186610f63565b6112f76080830185610f63565b61130460a0830184610f63565b979650505050505050565b600080fd5b600080fd5b7f4e487b7100000000000000000000000000000000000000000000000000000000600052604160045260246000fd5b61135182611040565b810181811067ffffffffffffffff821117156113705761136f611319565b5b80604052505050565b6000611383610f8d565b905061138f8282611348565b919050565b600067ffffffffffffffff8211156113af576113ae611319565b5b6113b882611040565b9050602081019050919050565b82818337600083830152505050565b60006113e76113e284611394565b611379565b90508281526020810184848401111561140357611402611314565b5b61140e8482856113c5565b509392505050565b600082601f83011261142b5761142a61130f565b5b813561143b8482602086016113d4565b91505092915050565b6000806040838503121561145b5761145a610f97565b5b600061146985828601610fb8565b925050602083013567ffffffffffffffff81111561148a57611489610f9c565b5b61149685828601611416565b9150509250929050565b6114a9816110f8565b81146114b457600080fd5b50565b6000813590506114c6816114a0565b92915050565b60008060008060008060c087890312156114e9576114e8610f97565b5b60006114f789828a016114b7565b965050602087013567ffffffffffffffff81111561151857611517610f9c565b5b61152489828a01611416565b955050604087013567ffffffffffffffff81111561154557611544610f9c565b5b61155189828a01611416565b945050606061156289828a01610fb8565b935050608061157389828a01610fb8565b92505060a087013567ffffffffffffffff81111561159457611593610f9c565b5b6115a089828a01611416565b9150509295509295509295565b600081519050919050565b600082825260208201905092915050565b6000819050602082019050919050565b600082825260208201905092915050565b60006115f582610ffa565b6115ff81856115d9565b935061160f818560208601611016565b61161881611040565b840191505092915050565b600082825260208201905092915050565b600061163f826110ac565b6116498185611623565b9350611654836110c8565b8060005b8381101561168557815161166c8882611119565b975061167783611131565b925050600181019050611658565b5085935050505092915050565b600082825260208201905092915050565b60006116ae8261119c565b6116b88185611692565b93506116c3836111b8565b8060005b838110156116f45781516116db88826111d7565b97506116e6836111ef565b9250506001810190506116c7565b5085935050505092915050565b60006101008301600083015161171a600086018261110a565b506020830151848203602086015261173282826115ea565b9150506040830151848203604086015261174c82826115ea565b915050606083015161176160608601826111c8565b50608083015161177460808601826111c8565b5060a083015161178760a08601826111c8565b5060c083015184820360c086015261179f8282611634565b91505060e083015184820360e08601526117b982826116a3565b9150508091505092915050565b60006117d28383611701565b905092915050565b6000602082019050919050565b60006117f2826115ad565b6117fc81856115b8565b93508360208202850161180e856115c9565b8060005b8581101561184a578484038952815161182b85826117c6565b9450611836836117da565b925060208a01995050600181019050611812565b50829750879550505050505092915050565b6000602082019050818103600083015261187681846117e7565b905092915050565b7f4e487b7100000000000000000000000000000000000000000000000000000000600052602260045260246000fd5b600060028204905060018216806118c557607f821691505b6020821081036118d8576118d761187e565b5b50919050565b600081905092915050565b50565b60006118f96000836118de565b9150611904826118e9565b600082019050919050565b600061191a826118ec565b9150819050919050565b7f4e487b7100000000000000000000000000000000000000000000000000000000600052601160045260246000fd5b600061195e82610f59565b915061196983610f59565b925082820190508082111561198157611980611924565b5b92915050565b7f43616d706169676e20646f6573206e6f74206578697374000000000000000000600082015250565b60006119bd601783611005565b91506119c882611987565b602082019050919050565b600060208201905081810360008301526119ec816119b0565b9050919050565b7f4f6e6c792063616d706169676e206f776e65722063616e20736574204950465360008201527f2068617368000000000000000000000000000000000000000000000000000000602082015250565b6000611a4f602583611005565b9150611a5a826119f3565b604082019050919050565b60006020820190508181036000830152611a7e81611a42565b9050919050565b60008190508160005260206000209050919050565b60006020601f8301049050919050565b600082821b905092915050565b600060088302611ae77fffffffffffffffffffffffffffffffffffffffffffffffffffffffffffffffff82611aaa565b611af18683611aaa565b95508019841693508086168417925050509392505050565b6000819050919050565b6000611b2e611b29611b2484610f59565b611b09565b610f59565b9050919050565b6000819050919050565b611b4883611b13565b611b5c611b5482611b35565b848454611ab7565b825550505050565b600090565b611b71611b64565b611b7c818484611b3f565b505050565b5b81811015611ba057611b95600082611b69565b600181019050611b82565b5050565b601f821115611be557611bb681611a85565b611bbf84611a9a565b81016020851015611bce578190505b611be2611bda85611a9a565b830182611b81565b50505b505050565b600082821c905092915050565b6000611c0860001984600802611bea565b1980831691505092915050565b6000611c218383611bf7565b9150826002028217905092915050565b611c3a82610ffa565b67ffffffffffffffff811115611c5357611c52611319565b5b611c5d82546118ad565b611c68828285611ba4565b600060209050601f831160018114611c9b5760008415611c89578287015190505b611c938582611c15565b865550611cfb565b601f198416611ca986611a85565b60005b82811015611cd157848901518255600182019150602085019450602081019050611cac565b86831015611cee5784890151611cea601f891682611bf7565b8355505b6001600288020188555050505b505050505050565b7f496e76616c6964206f776e657220616464726573730000000000000000000000600082015250565b6000611d39601583611005565b9150611d4482611d03565b602082019050919050565b60006020820190508181036000830152611d6881611d2c565b9050919050565b7f5469746c652063616e6e6f7420626520656d7074790000000000000000000000600082015250565b6000611da5601583611005565b9150611db082611d6f565b602082019050919050565b60006020820190508181036000830152611dd481611d98565b9050919050565b7f4465736372697074696f6e2063616e6e6f7420626520656d7074790000000000600082015250565b6000611e11601b83611005565b9150611e1c82611ddb565b602082019050919050565b60006020820190508181036000830152611e4081611e04565b9050919050565b7f54617267657420616d6f756e74206d757374206265206772656174657220746860008201527f616e203000000000000000000000000000000000000000000000000000000000602082015250565b6000611ea3602483611005565b9150611eae82611e47565b604082019050919050565b60006020820190508181036000830152611ed281611e96565b9050919050565b7f54686520646561646c696e652073686f756c642062652061206461746520696e60008201527f20746865206675747572652e0000000000000000000000000000000000000000602082015250565b6000611f35602c83611005565b9150611f4082611ed9565b604082019050919050565b60006020820190508181036000830152611f6481611f28565b9050919050565b6000611f7682610f59565b91507fffffffffffffffffffffffffffffffffffffffffffffffffffffffffffffffff8203611fa857611fa7611924565b5b600182019050919050565b7f4e487b7100000000000000000000000000000000000000000000000000000000600052603260045260246000fdfea264697066735822122060477800c299d31b30066ea0d2167771bd5b69e49c9640ce06533b336ebe36f464736f6c63430008120033",
  "linkReferences": {},
  "deployedLinkReferences": {}
}